:1009FE0057656C636F6D6520746F2044657061720E
:100A0E00746D656E74206F6620456C6563747269D3
:100A1E0063616C20456E67696E656572696E67000D
:090A2E001209AED2817F057E00A1
:100A3700E4FDFCC3ED9FEE6480F8EC6480985015EC
:100A4700E4FBFA0BBB00010AEB64644A70F50DBDC9
:050A570000010C80DE2F
:010A5C002277
:1009AE00EF30E004D2A08002C2A0EF30E104D2A169
:1009BE008002C2A1EF30E204D2A28002C2A2EF30C6
:1009CE00E304D2A38002C2A3EF30E404D2A48002D7
:1009DE00C2A4EF30E504D2A58002C2A5EF30E60432
:1009EE00D2A68002C2A6EF30E703D2A722C2A72268
:070AE0007E00120A377F308F
:080AE700C280120A2EC2812216
:050B03007F01020AE77A
:100AAD008F27A905E527B40105E924808008E527EE
:0B0ABD00B40207E924C0FF120AE72280
:100A5D00E4FF1209AEC2807FC8120AE07F32120A8B
:100A6D00E07F6E120AE07F38120AE77F0C120AE768
:0A0A7D007F01120AE77F06020AE774
:080AFB00D280120A2EC28122F2
:100A8700E4FDFCC3ED9FEE6480F8EC64809850159C
:100A9700E4FBFA0BBB00010AEB64644A70F50DBD79
:050AA70000010C80DEDF
:010AAC002227
:060800008B088A09890A39
:10080600E4F50DF50EF50F751001F511F512F50B62
:10081600F50CAB08AA09A90A850C82850B83120878
:10082600F6FF70030208F56420600E050EE50E70F3
:1008360002050D142413F8A607AB08AA09A90A8510
:100846000C82850B831208F664206014E50C2401E3
:10085600FFE4350B8F82F5831208F660030208EA7F
:100866007413250EF8E4F6D3E50E9410E50D6480B6
:1008760094805017C37410950EFFE4950DFE7C000E
:100886007D021209238E118F128005E4F511F512EF
:10089600900000AF8274132FF8E66024AF100512A3
:1008A600E5127002051114FD120AADAF8274132F02
:1008B600F8E6FF120AFB7F2C7E01120A87A380D37B
:1008C600E4F50DF50EE5106401450F7007F50F759B
:1008D60010028009750F00751001120B037FF47E5C
:0F08E60001120A87050CE50C7002050B020818B9
:0108F50022E0
:100AC800120A5D7BFF7A0979FE120800120B037F78
:080AD800B87E0B120A8780EBC7
:03000000020AEF02
:0C0AEF00787FE4F6D8FD758127020AC864
:1008F600BB010CE58229F582E5833AF583E02250B7
:1009060006E92582F8E622BBFE06E92582F8E22200
:0D091600E58229F582E5833AF583E493221A
:10092300C2D5EC30E709B2D5E4C39DFDE49CFCEEEF
:1009330030E715B2D5E4C39FFFE49EFE120959C305
:10094300E49DFDE49CFC800312095930D507C3E400
:060953009FFFE49EFE225E
:10095900BC000BBE0029EF8DF084FFADF022E4CC82
:10096900F875F008EF2FFFEE33FEEC33FCEE9DEC4B
:10097900984005FCEE9DFE0FD5F0E9E4CEFD22ED91
:10098900F8F5F0EE8420D21CFEADF075F008EF2FDB
:10099900FFED33FD4007985006D5F0F222C398FDCC
:0509A9000FD5F0EA2269
:00000001FF
